{
  "contractName": "TomatoChain",
  "abi": [
    {
      "inputs": [],
      "stateMutability": "nonpayable",
      "type": "constructor"
    },
    {
      "anonymous": false,
      "inputs": [
        {
          "indexed": true,
          "internalType": "address",
          "name": "owner",
          "type": "address"
        },
        {
          "indexed": true,
          "internalType": "address",
          "name": "spender",
          "type": "address"
        },
        {
          "indexed": false,
          "internalType": "uint256",
          "name": "value",
          "type": "uint256"
        }
      ],
      "name": "Approval",
      "type": "event"
    },
    {
      "anonymous": false,
      "inputs": [
        {
          "indexed": true,
          "internalType": "bytes32",
          "name": "role",
          "type": "bytes32"
        },
        {
          "indexed": true,
          "internalType": "bytes32",
          "name": "previousAdminRole",
          "type": "bytes32"
        },
        {
          "indexed": true,
          "internalType": "bytes32",
          "name": "newAdminRole",
          "type": "bytes32"
        }
      ],
      "name": "RoleAdminChanged",
      "type": "event"
    },
    {
      "anonymous": false,
      "inputs": [
        {
          "indexed": true,
          "internalType": "bytes32",
          "name": "role",
          "type": "bytes32"
        },
        {
          "indexed": true,
          "internalType": "address",
          "name": "account",
          "type": "address"
        },
        {
          "indexed": true,
          "internalType": "address",
          "name": "sender",
          "type": "address"
        }
      ],
      "name": "RoleGranted",
      "type": "event"
    },
    {
      "anonymous": false,
      "inputs": [
        {
          "indexed": true,
          "internalType": "bytes32",
          "name": "role",
          "type": "bytes32"
        },
        {
          "indexed": true,
          "internalType": "address",
          "name": "account",
          "type": "address"
        },
        {
          "indexed": true,
          "internalType": "address",
          "name": "sender",
          "type": "address"
        }
      ],
      "name": "RoleRevoked",
      "type": "event"
    },
    {
      "anonymous": false,
      "inputs": [
        {
          "indexed": true,
          "internalType": "address",
          "name": "from",
          "type": "address"
        },
        {
          "indexed": true,
          "internalType": "address",
          "name": "to",
          "type": "address"
        },
        {
          "indexed": false,
          "internalType": "uint256",
          "name": "value",
          "type": "uint256"
        }
      ],
      "name": "Transfer",
      "type": "event"
    },
    {
      "anonymous": false,
      "inputs": [
        {
          "components": [
            {
              "internalType": "uint256",
              "name": "productID",
              "type": "uint256"
            },
            {
              "internalType": "string",
              "name": "productName",
              "type": "string"
            },
            {
              "internalType": "uint256",
              "name": "productPrice",
              "type": "uint256"
            },
            {
              "internalType": "string",
              "name": "productDescription",
              "type": "string"
            },
            {
              "internalType": "string",
              "name": "Provider",
              "type": "string"
            },
            {
              "internalType": "string",
              "name": "Retailer",
              "type": "string"
            },
            {
              "internalType": "bool",
              "name": "isConfirmByRetailer",
              "type": "bool"
            },
            {
              "internalType": "uint256",
              "name": "dateOfManufacture",
              "type": "uint256"
            },
            {
              "internalType": "uint256",
              "name": "expirationDate",
              "type": "uint256"
            },
            {
              "internalType": "uint256",
              "name": "quantity",
              "type": "uint256"
            }
          ],
          "indexed": false,
          "internalType": "struct TomatoChain.Product",
          "name": "product",
          "type": "tuple"
        }
      ],
      "name": "productEvent",
      "type": "event"
    },
    {
      "inputs": [],
      "name": "DEFAULT_ADMIN_ROLE",
      "outputs": [
        {
          "internalType": "bytes32",
          "name": "",
          "type": "bytes32"
        }
      ],
      "stateMutability": "view",
      "type": "function",
      "constant": true
    },
    {
      "inputs": [
        {
          "internalType": "address",
          "name": "owner",
          "type": "address"
        },
        {
          "internalType": "address",
          "name": "spender",
          "type": "address"
        }
      ],
      "name": "allowance",
      "outputs": [
        {
          "internalType": "uint256",
          "name": "",
          "type": "uint256"
        }
      ],
      "stateMutability": "view",
      "type": "function",
      "constant": true
    },
    {
      "inputs": [
        {
          "internalType": "address",
          "name": "spender",
          "type": "address"
        },
        {
          "internalType": "uint256",
          "name": "amount",
          "type": "uint256"
        }
      ],
      "name": "approve",
      "outputs": [
        {
          "internalType": "bool",
          "name": "",
          "type": "bool"
        }
      ],
      "stateMutability": "nonpayable",
      "type": "function"
    },
    {
      "inputs": [
        {
          "internalType": "address",
          "name": "account",
          "type": "address"
        }
      ],
      "name": "balanceOf",
      "outputs": [
        {
          "internalType": "uint256",
          "name": "",
          "type": "uint256"
        }
      ],
      "stateMutability": "view",
      "type": "function",
      "constant": true
    },
    {
      "inputs": [],
      "name": "decimals",
      "outputs": [
        {
          "internalType": "uint8",
          "name": "",
          "type": "uint8"
        }
      ],
      "stateMutability": "view",
      "type": "function",
      "constant": true
    },
    {
      "inputs": [
        {
          "internalType": "address",
          "name": "spender",
          "type": "address"
        },
        {
          "internalType": "uint256",
          "name": "subtractedValue",
          "type": "uint256"
        }
      ],
      "name": "decreaseAllowance",
      "outputs": [
        {
          "internalType": "bool",
          "name": "",
          "type": "bool"
        }
      ],
      "stateMutability": "nonpayable",
      "type": "function"
    },
    {
      "inputs": [
        {
          "internalType": "bytes32",
          "name": "role",
          "type": "bytes32"
        }
      ],
      "name": "getRoleAdmin",
      "outputs": [
        {
          "internalType": "bytes32",
          "name": "",
          "type": "bytes32"
        }
      ],
      "stateMutability": "view",
      "type": "function",
      "constant": true
    },
    {
      "inputs": [
        {
          "internalType": "bytes32",
          "name": "role",
          "type": "bytes32"
        },
        {
          "internalType": "address",
          "name": "account",
          "type": "address"
        }
      ],
      "name": "grantRole",
      "outputs": [],
      "stateMutability": "nonpayable",
      "type": "function"
    },
    {
      "inputs": [
        {
          "internalType": "bytes32",
          "name": "role",
          "type": "bytes32"
        },
        {
          "internalType": "address",
          "name": "account",
          "type": "address"
        }
      ],
      "name": "hasRole",
      "outputs": [
        {
          "internalType": "bool",
          "name": "",
          "type": "bool"
        }
      ],
      "stateMutability": "view",
      "type": "function",
      "constant": true
    },
    {
      "inputs": [
        {
          "internalType": "address",
          "name": "spender",
          "type": "address"
        },
        {
          "internalType": "uint256",
          "name": "addedValue",
          "type": "uint256"
        }
      ],
      "name": "increaseAllowance",
      "outputs": [
        {
          "internalType": "bool",
          "name": "",
          "type": "bool"
        }
      ],
      "stateMutability": "nonpayable",
      "type": "function"
    },
    {
      "inputs": [],
      "name": "name",
      "outputs": [
        {
          "internalType": "string",
          "name": "",
          "type": "string"
        }
      ],
      "stateMutability": "view",
      "type": "function",
      "constant": true
    },
    {
      "inputs": [
        {
          "internalType": "bytes32",
          "name": "role",
          "type": "bytes32"
        },
        {
          "internalType": "address",
          "name": "account",
          "type": "address"
        }
      ],
      "name": "renounceRole",
      "outputs": [],
      "stateMutability": "nonpayable",
      "type": "function"
    },
    {
      "inputs": [
        {
          "internalType": "bytes32",
          "name": "role",
          "type": "bytes32"
        },
        {
          "internalType": "address",
          "name": "account",
          "type": "address"
        }
      ],
      "name": "revokeRole",
      "outputs": [],
      "stateMutability": "nonpayable",
      "type": "function"
    },
    {
      "inputs": [
        {
          "internalType": "bytes4",
          "name": "interfaceId",
          "type": "bytes4"
        }
      ],
      "name": "supportsInterface",
      "outputs": [
        {
          "internalType": "bool",
          "name": "",
          "type": "bool"
        }
      ],
      "stateMutability": "view",
      "type": "function",
      "constant": true
    },
    {
      "inputs": [],
      "name": "symbol",
      "outputs": [
        {
          "internalType": "string",
          "name": "",
          "type": "string"
        }
      ],
      "stateMutability": "view",
      "type": "function",
      "constant": true
    },
    {
      "inputs": [
        {
          "internalType": "string",
          "name": "",
          "type": "string"
        },
        {
          "internalType": "uint256",
          "name": "",
          "type": "uint256"
        }
      ],
      "name": "totalProductProvider",
      "outputs": [
        {
          "internalType": "uint256",
          "name": "productID",
          "type": "uint256"
        },
        {
          "internalType": "string",
          "name": "productName",
          "type": "string"
        },
        {
          "internalType": "uint256",
          "name": "productPrice",
          "type": "uint256"
        },
        {
          "internalType": "string",
          "name": "productDescription",
          "type": "string"
        },
        {
          "internalType": "string",
          "name": "Provider",
          "type": "string"
        },
        {
          "internalType": "string",
          "name": "Retailer",
          "type": "string"
        },
        {
          "internalType": "bool",
          "name": "isConfirmByRetailer",
          "type": "bool"
        },
        {
          "internalType": "uint256",
          "name": "dateOfManufacture",
          "type": "uint256"
        },
        {
          "internalType": "uint256",
          "name": "expirationDate",
          "type": "uint256"
        },
        {
          "internalType": "uint256",
          "name": "quantity",
          "type": "uint256"
        }
      ],
      "stateMutability": "view",
      "type": "function",
      "constant": true
    },
    {
      "inputs": [
        {
          "internalType": "string",
          "name": "",
          "type": "string"
        },
        {
          "internalType": "uint256",
          "name": "",
          "type": "uint256"
        }
      ],
      "name": "totalProductRetailer",
      "outputs": [
        {
          "internalType": "uint256",
          "name": "productID",
          "type": "uint256"
        },
        {
          "internalType": "string",
          "name": "productName",
          "type": "string"
        },
        {
          "internalType": "uint256",
          "name": "productPrice",
          "type": "uint256"
        },
        {
          "internalType": "string",
          "name": "productDescription",
          "type": "string"
        },
        {
          "internalType": "string",
          "name": "Provider",
          "type": "string"
        },
        {
          "internalType": "string",
          "name": "Retailer",
          "type": "string"
        },
        {
          "internalType": "bool",
          "name": "isConfirmByRetailer",
          "type": "bool"
        },
        {
          "internalType": "uint256",
          "name": "dateOfManufacture",
          "type": "uint256"
        },
        {
          "internalType": "uint256",
          "name": "expirationDate",
          "type": "uint256"
        },
        {
          "internalType": "uint256",
          "name": "quantity",
          "type": "uint256"
        }
      ],
      "stateMutability": "view",
      "type": "function",
      "constant": true
    },
    {
      "inputs": [
        {
          "internalType": "string",
          "name": "",
          "type": "string"
        }
      ],
      "name": "totalProvider",
      "outputs": [
        {
          "internalType": "uint256",
          "name": "",
          "type": "uint256"
        }
      ],
      "stateMutability": "view",
      "type": "function",
      "constant": true
    },
    {
      "inputs": [
        {
          "internalType": "string",
          "name": "",
          "type": "string"
        }
      ],
      "name": "totalRetailer",
      "outputs": [
        {
          "internalType": "uint256",
          "name": "",
          "type": "uint256"
        }
      ],
      "stateMutability": "view",
      "type": "function",
      "constant": true
    },
    {
      "inputs": [],
      "name": "totalSupply",
      "outputs": [
        {
          "internalType": "uint256",
          "name": "",
          "type": "uint256"
        }
      ],
      "stateMutability": "view",
      "type": "function",
      "constant": true
    },
    {
      "inputs": [
        {
          "internalType": "address",
          "name": "to",
          "type": "address"
        },
        {
          "internalType": "uint256",
          "name": "amount",
          "type": "uint256"
        }
      ],
      "name": "transfer",
      "outputs": [
        {
          "internalType": "bool",
          "name": "",
          "type": "bool"
        }
      ],
      "stateMutability": "nonpayable",
      "type": "function"
    },
    {
      "inputs": [
        {
          "internalType": "address",
          "name": "from",
          "type": "address"
        },
        {
          "internalType": "address",
          "name": "to",
          "type": "address"
        },
        {
          "internalType": "uint256",
          "name": "amount",
          "type": "uint256"
        }
      ],
      "name": "transferFrom",
      "outputs": [
        {
          "internalType": "bool",
          "name": "",
          "type": "bool"
        }
      ],
      "stateMutability": "nonpayable",
      "type": "function"
    },
    {
      "inputs": [
        {
          "internalType": "uint256",
          "name": "productID",
          "type": "uint256"
        },
        {
          "internalType": "string",
          "name": "retailer",
          "type": "string"
        },
        {
          "internalType": "string",
          "name": "provider",
          "type": "string"
        },
        {
          "internalType": "uint256",
          "name": "index",
          "type": "uint256"
        }
      ],
      "name": "acceptByRetailer",
      "outputs": [],
      "stateMutability": "nonpayable",
      "type": "function"
    },
    {
      "inputs": [
        {
          "internalType": "uint256",
          "name": "productID",
          "type": "uint256"
        },
        {
          "internalType": "string",
          "name": "productName",
          "type": "string"
        },
        {
          "internalType": "uint256",
          "name": "productPrice",
          "type": "uint256"
        },
        {
          "internalType": "string",
          "name": "productDescription",
          "type": "string"
        },
        {
          "internalType": "string",
          "name": "Provider",
          "type": "string"
        },
        {
          "internalType": "bool",
          "name": "isConfirmByRetailer",
          "type": "bool"
        },
        {
          "internalType": "string",
          "name": "Retailer",
          "type": "string"
        },
        {
          "internalType": "uint256",
          "name": "dateOfManufacture",
          "type": "uint256"
        },
        {
          "internalType": "uint256",
          "name": "expirationDate",
          "type": "uint256"
        },
        {
          "internalType": "uint256",
          "name": "quantity",
          "type": "uint256"
        }
      ],
      "name": "createProduct",
      "outputs": [],
      "stateMutability": "nonpayable",
      "type": "function"
    },
    {
      "inputs": [
        {
          "internalType": "address",
          "name": "to",
          "type": "address"
        },
        {
          "internalType": "uint256",
          "name": "amount",
          "type": "uint256"
        }
      ],
      "name": "mint",
      "outputs": [],
      "stateMutability": "nonpayable",
      "type": "function"
    },
    {
      "inputs": [
        {
          "internalType": "address",
          "name": "company",
          "type": "address"
        }
      ],
      "name": "setCompany",
      "outputs": [],
      "stateMutability": "nonpayable",
      "type": "function"
    }
  ],
  "bytecode": "0x60806040523480156200001157600080fd5b506040518060400160405280600b81526020017f546f6d61746f436861696e0000000000000000000000000000000000000000008152506040518060400160405280600681526020017f544f4d41544f000000000000000000000000000000000000000000000000000081525081600390805190602001906200009692919062000264565b508060049080519060200190620000af92919062000264565b505050620000c76000801b33620000ff60201b60201c565b620000f97f9e1688b53537f356172ce07f39e129155063957163c5f9462d4d9e55b228b06c33620000ff60201b60201c565b62000379565b620001118282620001f160201b60201c565b620001ed5760016005600084815260200190815260200160002060000160008373ffffffffffffffffffffffffffffffffffffffff1673ffffffffffffffffffffffffffffffffffffffff16815260200190815260200160002060006101000a81548160ff021916908315150217905550620001926200025c60201b60201c565b73ffffffffffffffffffffffffffffffffffffffff168173ffffffffffffffffffffffffffffffffffffffff16837f2f8788117e7eff1d82e926ec794901d17c78024a50270940304540a733656f0d60405160405180910390a45b5050565b60006005600084815260200190815260200160002060000160008373ffffffffffffffffffffffffffffffffffffffff1673ffffffffffffffffffffffffffffffffffffffff16815260200190815260200160002060009054906101000a900460ff16905092915050565b600033905090565b828054620002729062000314565b90600052602060002090601f016020900481019282620002965760008555620002e2565b82601f10620002b157805160ff1916838001178555620002e2565b82800160010185558215620002e2579182015b82811115620002e1578251825591602001919060010190620002c4565b5b509050620002f19190620002f5565b5090565b5b8082111562000310576000816000905550600101620002f6565b5090565b600060028204905060018216806200032d57607f821691505b602082108114156200034457620003436200034a565b5b50919050565b7f4e487b7100000000000000000000000000000000000000000000000000000000600052602260045260246000fd5b613a1580620003896000396000f3fe608060405234801561001057600080fd5b506004361061018e5760003560e01c806370a08231116100de578063a9059cbb11610097578063dd62ed3e11610071578063dd62ed3e146104ea578063de58013a1461051a578063e66539f614610553578063ed9cbf421461056f5761018e565b8063a9059cbb14610465578063ba46361414610495578063d547741f146104ce5761018e565b806370a082311461037d57806391d14854146103ad57806395d89b41146103dd578063a217fddf146103fb578063a457c2d714610419578063a8db2445146104495761018e565b8063248a9ca31161014b57806336568abe1161012557806336568abe146102f9578063395093511461031557806340c10f19146103455780635b4607af146103615761018e565b8063248a9ca31461028f5780632f2ff15d146102bf578063313ce567146102db5761018e565b806301ffc9a71461019357806306fdde03146101c35780630895aac6146101e1578063095ea7b31461021157806318160ddd1461024157806323b872dd1461025f575b600080fd5b6101ad60048036038101906101a8919061273a565b61059f565b6040516101ba9190612f77565b60405180910390f35b6101cb610619565b6040516101d89190612fad565b60405180910390f35b6101fb60048036038101906101f69190612763565b6106ab565b6040516102089190613173565b60405180910390f35b61022b60048036038101906102269190612699565b6106d9565b6040516102389190612f77565b60405180910390f35b6102496106fc565b6040516102569190613173565b60405180910390f35b6102796004803603810190610274919061264a565b610706565b6040516102869190612f77565b60405180910390f35b6102a960048036038101906102a491906126d5565b610735565b6040516102b69190612f92565b60405180910390f35b6102d960048036038101906102d491906126fe565b610755565b005b6102e361077e565b6040516102f09190613246565b60405180910390f35b610313600480360381019061030e91906126fe565b610787565b005b61032f600480360381019061032a9190612699565b61080a565b60405161033c9190612f77565b60405180910390f35b61035f600480360381019061035a9190612699565b6108b4565b005b61037b600480360381019061037691906127f8565b6108d8565b005b610397600480360381019061039291906125e5565b610a95565b6040516103a49190613173565b60405180910390f35b6103c760048036038101906103c291906126fe565b610add565b6040516103d49190612f77565b60405180910390f35b6103e5610b48565b6040516103f29190612fad565b60405180910390f35b610403610bda565b6040516104109190612f92565b60405180910390f35b610433600480360381019061042e9190612699565b610be1565b6040516104409190612f77565b60405180910390f35b610463600480360381019061045e91906125e5565b610ccb565b005b61047f600480360381019061047a9190612699565b610d0e565b60405161048c9190612f77565b60405180910390f35b6104af60048036038101906104aa91906127a4565b610d31565b6040516104c59a9998979695949392919061318e565b60405180910390f35b6104e860048036038101906104e391906126fe565b610fd5565b005b61050460048036038101906104ff919061260e565b610ffe565b6040516105119190613173565b60405180910390f35b610534600480360381019061052f91906127a4565b611085565b60405161054a9a9998979695949392919061318e565b60405180910390f35b61056d6004803603810190610568919061288b565b611329565b005b61058960048036038101906105849190612763565b611769565b6040516105969190613173565b60405180910390f35b60007f7965db0b000000000000000000000000000000000000000000000000000000007bffffffffffffffffffffffffffffffffffffffffffffffffffffffff1916827bffffffffffffffffffffffffffffffffffffffffffffffffffffffff19161480610612575061061182611797565b5b9050919050565b606060038054610628906134c2565b80601f0160208091040260200160405190810160405280929190818152602001828054610654906134c2565b80156106a15780601f10610676576101008083540402835291602001916106a1565b820191906000526020600020905b81548152906001019060200180831161068457829003601f168201915b5050505050905090565b6007818051602081018201805184825260208301602085012081835280955050505050506000915090505481565b6000806106e4611801565b90506106f1818585611809565b600191505092915050565b6000600254905090565b600080610711611801565b905061071e8582856119d4565b610729858585611a60565b60019150509392505050565b600060056000838152602001908152602001600020600101549050919050565b61075e82610735565b61076f8161076a611801565b611ce1565b6107798383611d7e565b505050565b60006012905090565b61078f611801565b73ffffffffffffffffffffffffffffffffffffffff168173ffffffffffffffffffffffffffffffffffffffff16146107fc576040517f08c379a00000000000000000000000000000000000000000000000000000000081526004016107f3906130ef565b60405180910390fd5b6108068282611e5f565b5050565b600080610815611801565b90506108a9818585600160008673ffffffffffffffffffffffffffffffffffffffff1673ffffffffffffffffffffffffffffffffffffffff16815260200190815260200160002060008973ffffffffffffffffffffffffffffffffffffffff1673ffffffffffffffffffffffffffffffffffffffff168152602001908152602001600020546108a49190613304565b611809565b600191505092915050565b6000801b6108c9816108c4611801565b611ce1565b6108d38383611f41565b505050565b7f9e1688b53537f356172ce07f39e129155063957163c5f9462d4d9e55b228b06c61090a81610905611801565b611ce1565b84600015156006600083815260200190815260200160002060060160009054906101000a900460ff16151514610975576040517f08c379a000000000000000000000000000000000000000000000000000000000815260040161096c9061306f565b60405180910390fd5b60016006600088815260200190815260200160002060060160006101000a81548160ff02191690831515021790555060016009866040516109b69190612f26565b9081526020016040518091039020600085815260200190815260200160002060060160006101000a81548160ff0219169083151502179055506001600a85604051610a019190612f26565b9081526020016040518091039020600085815260200190815260200160002060060160006101000a81548160ff021916908315150217905550610a4486856120a1565b7fc6fee93cba64dc429c552ba44ea2057f3b1baef6548c1c0c8412d207a0248f6460066000888152602001908152602001600020604051610a859190613151565b60405180910390a1505050505050565b60008060008373ffffffffffffffffffffffffffffffffffffffff1673ffffffffffffffffffffffffffffffffffffffff168152602001908152602001600020549050919050565b60006005600084815260200190815260200160002060000160008373ffffffffffffffffffffffffffffffffffffffff1673ffffffffffffffffffffffffffffffffffffffff16815260200190815260200160002060009054906101000a900460ff16905092915050565b606060048054610b57906134c2565b80601f0160208091040260200160405190810160405280929190818152602001828054610b83906134c2565b8015610bd05780601f10610ba557610100808354040283529160200191610bd0565b820191906000526020600020905b815481529060010190602001808311610bb357829003601f168201915b5050505050905090565b6000801b81565b600080610bec611801565b90506000600160008373ffffffffffffffffffffffffffffffffffffffff1673ffffffffffffffffffffffffffffffffffffffff16815260200190815260200160002060008673ffffffffffffffffffffffffffffffffffffffff1673ffffffffffffffffffffffffffffffffffffffff16815260200190815260200160002054905083811015610cb2576040517f08c379a0000000000000000000000000000000000000000000000000000000008152600401610ca9906130cf565b60405180910390fd5b610cbf8286868403611809565b60019250505092915050565b6000801b610ce081610cdb611801565b611ce1565b610d0a7f9e1688b53537f356172ce07f39e129155063957163c5f9462d4d9e55b228b06c83611d7e565b5050565b600080610d19611801565b9050610d26818585611a60565b600191505092915050565b600a8280516020810182018051848252602083016020850120818352809550505050505060205280600052604060002060009150915050806000015490806001018054610d7d906134c2565b80601f0160208091040260200160405190810160405280929190818152602001828054610da9906134c2565b8015610df65780601f10610dcb57610100808354040283529160200191610df6565b820191906000526020600020905b815481529060010190602001808311610dd957829003601f168201915b505050505090806002015490806003018054610e11906134c2565b80601f0160208091040260200160405190810160405280929190818152602001828054610e3d906134c2565b8015610e8a5780601f10610e5f57610100808354040283529160200191610e8a565b820191906000526020600020905b815481529060010190602001808311610e6d57829003601f168201915b505050505090806004018054610e9f906134c2565b80601f0160208091040260200160405190810160405280929190818152602001828054610ecb906134c2565b8015610f185780601f10610eed57610100808354040283529160200191610f18565b820191906000526020600020905b815481529060010190602001808311610efb57829003601f168201915b505050505090806005018054610f2d906134c2565b80601f0160208091040260200160405190810160405280929190818152602001828054610f59906134c2565b8015610fa65780601f10610f7b57610100808354040283529160200191610fa6565b820191906000526020600020905b815481529060010190602001808311610f8957829003601f168201915b5050505050908060060160009054906101000a900460ff1690806007015490806008015490806009015490508a565b610fde82610735565b610fef81610fea611801565b611ce1565b610ff98383611e5f565b505050565b6000600160008473ffffffffffffffffffffffffffffffffffffffff1673ffffffffffffffffffffffffffffffffffffffff16815260200190815260200160002060008373ffffffffffffffffffffffffffffffffffffffff1673ffffffffffffffffffffffffffffffffffffffff16815260200190815260200160002054905092915050565b600982805160208101820180518482526020830160208501208183528095505050505050602052806000526040600020600091509150508060000154908060010180546110d1906134c2565b80601f01602080910402602001604051908101604052809291908181526020018280546110fd906134c2565b801561114a5780601f1061111f5761010080835404028352916020019161114a565b820191906000526020600020905b81548152906001019060200180831161112d57829003601f168201915b505050505090806002015490806003018054611165906134c2565b80601f0160208091040260200160405190810160405280929190818152602001828054611191906134c2565b80156111de5780601f106111b3576101008083540402835291602001916111de565b820191906000526020600020905b8154815290600101906020018083116111c157829003601f168201915b5050505050908060040180546111f3906134c2565b80601f016020809104026020016040519081016040528092919081815260200182805461121f906134c2565b801561126c5780601f106112415761010080835404028352916020019161126c565b820191906000526020600020905b81548152906001019060200180831161124f57829003601f168201915b505050505090806005018054611281906134c2565b80601f01602080910402602001604051908101604052809291908181526020018280546112ad906134c2565b80156112fa5780601f106112cf576101008083540402835291602001916112fa565b820191906000526020600020905b8154815290600101906020018083116112dd57829003601f168201915b5050505050908060060160009054906101000a900460ff1690806007015490806008015490806009015490508a565b7f9e1688b53537f356172ce07f39e129155063957163c5f9462d4d9e55b228b06c61135b81611356611801565b611ce1565b60006040518061014001604052808d81526020018c81526020018b81526020018a8152602001898152602001878152602001881515815260200186815260200185815260200184815250905080600660008e81526020019081526020016000206000820151816000015560208201518160010190805190602001906113e1929190612471565b50604082015181600201556060820151816003019080519060200190611408929190612471565b506080820151816004019080519060200190611425929190612471565b5060a0820151816005019080519060200190611442929190612471565b5060c08201518160060160006101000a81548160ff02191690831515021790555060e082015181600701556101008201518160080155610120820151816009015590505060016007876040516114989190612f26565b908152602001604051809103902060008282546114b59190613304565b9250508190555060016008896040516114ce9190612f26565b908152602001604051809103902060008282546114eb9190613304565b92505081905550806009876040516115039190612f26565b908152602001604051809103902060006007896040516115239190612f26565b9081526020016040518091039020548152602001908152602001600020600082015181600001556020820151816001019080519060200190611566929190612471565b5060408201518160020155606082015181600301908051906020019061158d929190612471565b5060808201518160040190805190602001906115aa929190612471565b5060a08201518160050190805190602001906115c7929190612471565b5060c08201518160060160006101000a81548160ff02191690831515021790555060e082015181600701556101008201518160080155610120820151816009015590505080600a8960405161161c9190612f26565b9081526020016040518091039020600060088b60405161163c9190612f26565b908152602001604051809103902054815260200190815260200160002060008201518160000155602082015181600101908051906020019061167f929190612471565b506040820151816002015560608201518160030190805190602001906116a6929190612471565b5060808201518160040190805190602001906116c3929190612471565b5060a08201518160050190805190602001906116e0929190612471565b5060c08201518160060160006101000a81548160ff02191690831515021790555060e08201518160070155610100820151816008015561012082015181600901559050507fc6fee93cba64dc429c552ba44ea2057f3b1baef6548c1c0c8412d207a0248f6481604051611753919061312f565b60405180910390a1505050505050505050505050565b6008818051602081018201805184825260208301602085012081835280955050505050506000915090505481565b60007f01ffc9a7000000000000000000000000000000000000000000000000000000007bffffffffffffffffffffffffffffffffffffffffffffffffffffffff1916827bffffffffffffffffffffffffffffffffffffffffffffffffffffffff1916149050919050565b600033905090565b600073ffffffffffffffffffffffffffffffffffffffff168373ffffffffffffffffffffffffffffffffffffffff161415611879576040517f08c379a0000000000000000000000000000000000000000000000000000000008152600401611870906130af565b60405180910390fd5b600073ffffffffffffffffffffffffffffffffffffffff168273ffffffffffffffffffffffffffffffffffffffff1614156118e9576040517f08c379a00000000000000000000000000000000000000000000000000000000081526004016118e09061300f565b60405180910390fd5b80600160008573ffffffffffffffffffffffffffffffffffffffff1673ffffffffffffffffffffffffffffffffffffffff16815260200190815260200160002060008473ffffffffffffffffffffffffffffffffffffffff1673ffffffffffffffffffffffffffffffffffffffff168152602001908152602001600020819055508173ffffffffffffffffffffffffffffffffffffffff168373ffffffffffffffffffffffffffffffffffffffff167f8c5be1e5ebec7d5bd14f71427d1e84f3dd0314c0f7b2291e5b200ac8c7c3b925836040516119c79190613173565b60405180910390a3505050565b60006119e08484610ffe565b90507fffffffffffffffffffffffffffffffffffffffffffffffffffffffffffffffff8114611a5a5781811015611a4c576040517f08c379a0000000000000000000000000000000000000000000000000000000008152600401611a439061302f565b60405180910390fd5b611a598484848403611809565b5b50505050565b600073ffffffffffffffffffffffffffffffffffffffff168373ffffffffffffffffffffffffffffffffffffffff161415611ad0576040517f08c379a0000000000000000000000000000000000000000000000000000000008152600401611ac79061308f565b60405180910390fd5b600073ffffffffffffffffffffffffffffffffffffffff168273ffffffffffffffffffffffffffffffffffffffff161415611b40576040517f08c379a0000000000000000000000000000000000000000000000000000000008152600401611b3790612fef565b60405180910390fd5b611b4b83838361216d565b60008060008573ffffffffffffffffffffffffffffffffffffffff1673ffffffffffffffffffffffffffffffffffffffff16815260200190815260200160002054905081811015611bd1576040517f08c379a0000000000000000000000000000000000000000000000000000000008152600401611bc89061304f565b60405180910390fd5b8181036000808673ffffffffffffffffffffffffffffffffffffffff1673ffffffffffffffffffffffffffffffffffffffff16815260200190815260200160002081905550816000808573ffffffffffffffffffffffffffffffffffffffff1673ffffffffffffffffffffffffffffffffffffffff1681526020019081526020016000206000828254611c649190613304565b925050819055508273ffffffffffffffffffffffffffffffffffffffff168473ffffffffffffffffffffffffffffffffffffffff167fddf252ad1be2c89b69c2b068fc378daa952ba7f163c4a11628f55a4df523b3ef84604051611cc89190613173565b60405180910390a3611cdb848484612172565b50505050565b611ceb8282610add565b611d7a57611d108173ffffffffffffffffffffffffffffffffffffffff166014612177565b611d1e8360001c6020612177565b604051602001611d2f929190612f3d565b6040516020818303038152906040526040517f08c379a0000000000000000000000000000000000000000000000000000000008152600401611d719190612fad565b60405180910390fd5b5050565b611d888282610add565b611e5b5760016005600084815260200190815260200160002060000160008373ffffffffffffffffffffffffffffffffffffffff1673ffffffffffffffffffffffffffffffffffffffff16815260200190815260200160002060006101000a81548160ff021916908315150217905550611e00611801565b73ffffffffffffffffffffffffffffffffffffffff168173ffffffffffffffffffffffffffffffffffffffff16837f2f8788117e7eff1d82e926ec794901d17c78024a50270940304540a733656f0d60405160405180910390a45b5050565b611e698282610add565b15611f3d5760006005600084815260200190815260200160002060000160008373ffffffffffffffffffffffffffffffffffffffff1673ffffffffffffffffffffffffffffffffffffffff16815260200190815260200160002060006101000a81548160ff021916908315150217905550611ee2611801565b73ffffffffffffffffffffffffffffffffffffffff168173ffffffffffffffffffffffffffffffffffffffff16837ff6391f5c32d9c69d2a47ea670b442974b53935d1edc7fd64eb21e047a839171b60405160405180910390a45b5050565b600073ffffffffffffffffffffffffffffffffffffffff168273ffffffffffffffffffffffffffffffffffffffff161415611fb1576040517f08c379a0000000000000000000000000000000000000000000000000000000008152600401611fa89061310f565b60405180910390fd5b611fbd6000838361216d565b8060026000828254611fcf9190613304565b92505081905550806000808473ffffffffffffffffffffffffffffffffffffffff1673ffffffffffffffffffffffffffffffffffffffff16815260200190815260200160002060008282546120249190613304565b925050819055508173ffffffffffffffffffffffffffffffffffffffff16600073ffffffffffffffffffffffffffffffffffffffff167fddf252ad1be2c89b69c2b068fc378daa952ba7f163c4a11628f55a4df523b3ef836040516120899190613173565b60405180910390a361209d60008383612172565b5050565b60006008826040516120b39190612f26565b908152602001604051809103902054905060005b8181116121675783600a846040516120df9190612f26565b90815260200160405180910390206000838152602001908152602001600020600001541415612154576001600a8460405161211a9190612f26565b9081526020016040518091039020600083815260200190815260200160002060060160006101000a81548160ff0219169083151502179055505b808061215f90613559565b9150506120c7565b50505050565b505050565b505050565b60606000600283600261218a919061335a565b6121949190613304565b67ffffffffffffffff8111156121d3577f4e487b7100000000000000000000000000000000000000000000000000000000600052604160045260246000fd5b6040519080825280601f01601f1916602001820160405280156122055781602001600182028036833780820191505090505b5090507f300000000000000000000000000000000000000000000000000000000000000081600081518110612263577f4e487b7100000000000000000000000000000000000000000000000000000000600052603260045260246000fd5b60200101907effffffffffffffffffffffffffffffffffffffffffffffffffffffffffffff1916908160001a9053507f7800000000000000000000000000000000000000000000000000000000000000816001815181106122ed577f4e487b7100000000000000000000000000000000000000000000000000000000600052603260045260246000fd5b60200101907effffffffffffffffffffffffffffffffffffffffffffffffffffffffffffff1916908160001a9053506000600184600261232d919061335a565b6123379190613304565b90505b6001811115612423577f3031323334353637383961626364656600000000000000000000000000000000600f86166010811061239f577f4e487b7100000000000000000000000000000000000000000000000000000000600052603260045260246000fd5b1a60f81b8282815181106123dc577f4e487b7100000000000000000000000000000000000000000000000000000000600052603260045260246000fd5b60200101907effffffffffffffffffffffffffffffffffffffffffffffffffffffffffffff1916908160001a905350600485901c94508061241c90613498565b905061233a565b5060008414612467576040517f08c379a000000000000000000000000000000000000000000000000000000000815260040161245e90612fcf565b60405180910390fd5b8091505092915050565b82805461247d906134c2565b90600052602060002090601f01602090048101928261249f57600085556124e6565b82601f106124b857805160ff19168380011785556124e6565b828001600101855582156124e6579182015b828111156124e55782518255916020019190600101906124ca565b5b5090506124f391906124f7565b5090565b5b808211156125105760008160009055506001016124f8565b5090565b600061252761252284613286565b613261565b90508281526020810184848401111561253f57600080fd5b61254a848285613456565b509392505050565b6000813590506125618161396c565b92915050565b60008135905061257681613983565b92915050565b60008135905061258b8161399a565b92915050565b6000813590506125a0816139b1565b92915050565b600082601f8301126125b757600080fd5b81356125c7848260208601612514565b91505092915050565b6000813590506125df816139c8565b92915050565b6000602082840312156125f757600080fd5b600061260584828501612552565b91505092915050565b6000806040838503121561262157600080fd5b600061262f85828601612552565b925050602061264085828601612552565b9150509250929050565b60008060006060848603121561265f57600080fd5b600061266d86828701612552565b935050602061267e86828701612552565b925050604061268f868287016125d0565b9150509250925092565b600080604083850312156126ac57600080fd5b60006126ba85828601612552565b92505060206126cb858286016125d0565b9150509250929050565b6000602082840312156126e757600080fd5b60006126f58482850161257c565b91505092915050565b6000806040838503121561271157600080fd5b600061271f8582860161257c565b925050602061273085828601612552565b9150509250929050565b60006020828403121561274c57600080fd5b600061275a84828501612591565b91505092915050565b60006020828403121561277557600080fd5b600082013567ffffffffffffffff81111561278f57600080fd5b61279b848285016125a6565b91505092915050565b600080604083850312156127b757600080fd5b600083013567ffffffffffffffff8111156127d157600080fd5b6127dd858286016125a6565b92505060206127ee858286016125d0565b9150509250929050565b6000806000806080858703121561280e57600080fd5b600061281c878288016125d0565b945050602085013567ffffffffffffffff81111561283957600080fd5b612845878288016125a6565b935050604085013567ffffffffffffffff81111561286257600080fd5b61286e878288016125a6565b925050606061287f878288016125d0565b91505092959194509250565b6000806000806000806000806000806101408b8d0312156128ab57600080fd5b60006128b98d828e016125d0565b9a505060208b013567ffffffffffffffff8111156128d657600080fd5b6128e28d828e016125a6565b99505060406128f38d828e016125d0565b98505060608b013567ffffffffffffffff81111561291057600080fd5b61291c8d828e016125a6565b97505060808b013567ffffffffffffffff81111561293957600080fd5b6129458d828e016125a6565b96505060a06129568d828e01612567565b95505060c08b013567ffffffffffffffff81111561297357600080fd5b61297f8d828e016125a6565b94505060e06129908d828e016125d0565b9350506101006129a28d828e016125d0565b9250506101206129b48d828e016125d0565b9150509295989b9194979a5092959850565b6129cf816133dd565b82525050565b6129de816133dd565b82525050565b6129ed816133e9565b82525050565b60006129fe826132cc565b612a0881856132d7565b9350612a18818560208601613465565b612a218161362f565b840191505092915050565b6000612a37826132cc565b612a4181856132e8565b9350612a51818560208601613465565b612a5a8161362f565b840191505092915050565b6000612a70826132cc565b612a7a81856132f9565b9350612a8a818560208601613465565b80840191505092915050565b60008154612aa3816134c2565b612aad81866132d7565b94506001821660008114612ac85760018114612ada57612b0d565b60ff1983168652602086019350612b0d565b612ae3856132b7565b60005b83811015612b0557815481890152600182019150602081019050612ae6565b808801955050505b50505092915050565b6000612b236020836132e8565b9150612b2e8261364d565b602082019050919050565b6000612b466023836132e8565b9150612b5182613676565b604082019050919050565b6000612b696022836132e8565b9150612b74826136c5565b604082019050919050565b6000612b8c601d836132e8565b9150612b9782613714565b602082019050919050565b6000612baf6026836132e8565b9150612bba8261373d565b604082019050919050565b6000612bd2601f836132e8565b9150612bdd8261378c565b602082019050919050565b6000612bf56025836132e8565b9150612c00826137b5565b604082019050919050565b6000612c186024836132e8565b9150612c2382613804565b604082019050919050565b6000612c3b6017836132f9565b9150612c4682613853565b601782019050919050565b6000612c5e6025836132e8565b9150612c698261387c565b604082019050919050565b6000612c816011836132f9565b9150612c8c826138cb565b601182019050919050565b6000612ca4602f836132e8565b9150612caf826138f4565b604082019050919050565b6000612cc7601f836132e8565b9150612cd282613943565b602082019050919050565b600061014083016000830151612cf66000860182612ef9565b5060208301518482036020860152612d0e82826129f3565b9150506040830151612d236040860182612ef9565b5060608301518482036060860152612d3b82826129f3565b91505060808301518482036080860152612d5582826129f3565b91505060a083015184820360a0860152612d6f82826129f3565b91505060c0830151612d8460c08601826129c6565b5060e0830151612d9760e0860182612ef9565b50610100830151612dac610100860182612ef9565b50610120830151612dc1610120860182612ef9565b508091505092915050565b600061014083016000808401549050612de48161350e565b612df16000870182612ef9565b50600184018583036020870152612e088382612a96565b92505060028401549050612e1b8161350e565b612e286040870182612ef9565b50600384018583036060870152612e3f8382612a96565b925050600484018583036080870152612e588382612a96565b9250506005840185830360a0870152612e718382612a96565b92505060068401549050612e84816134f4565b612e9160c08701826129c6565b5060078401549050612ea28161350e565b612eaf60e0870182612ef9565b5060088401549050612ec08161350e565b612ece610100870182612ef9565b5060098401549050612edf8161350e565b612eed610120870182612ef9565b50819250505092915050565b612f028161343f565b82525050565b612f118161343f565b82525050565b612f2081613449565b82525050565b6000612f328284612a65565b915081905092915050565b6000612f4882612c2e565b9150612f548285612a65565b9150612f5f82612c74565b9150612f6b8284612a65565b91508190509392505050565b6000602082019050612f8c60008301846129d5565b92915050565b6000602082019050612fa760008301846129e4565b92915050565b60006020820190508181036000830152612fc78184612a2c565b905092915050565b60006020820190508181036000830152612fe881612b16565b9050919050565b6000602082019050818103600083015261300881612b39565b9050919050565b6000602082019050818103600083015261302881612b5c565b9050919050565b6000602082019050818103600083015261304881612b7f565b9050919050565b6000602082019050818103600083015261306881612ba2565b9050919050565b6000602082019050818103600083015261308881612bc5565b9050919050565b600060208201905081810360008301526130a881612be8565b9050919050565b600060208201905081810360008301526130c881612c0b565b9050919050565b600060208201905081810360008301526130e881612c51565b9050919050565b6000602082019050818103600083015261310881612c97565b9050919050565b6000602082019050818103600083015261312881612cba565b9050919050565b600060208201905081810360008301526131498184612cdd565b905092915050565b6000602082019050818103600083015261316b8184612dcc565b905092915050565b60006020820190506131886000830184612f08565b92915050565b6000610140820190506131a4600083018d612f08565b81810360208301526131b6818c612a2c565b90506131c5604083018b612f08565b81810360608301526131d7818a612a2c565b905081810360808301526131eb8189612a2c565b905081810360a08301526131ff8188612a2c565b905061320e60c08301876129d5565b61321b60e0830186612f08565b613229610100830185612f08565b613237610120830184612f08565b9b9a5050505050505050505050565b600060208201905061325b6000830184612f17565b92915050565b600061326b61327c565b90506132778282613528565b919050565b6000604051905090565b600067ffffffffffffffff8211156132a1576132a0613600565b5b6132aa8261362f565b9050602081019050919050565b60008190508160005260206000209050919050565b600081519050919050565b600082825260208201905092915050565b600082825260208201905092915050565b600081905092915050565b600061330f8261343f565b915061331a8361343f565b9250827fffffffffffffffffffffffffffffffffffffffffffffffffffffffffffffffff0382111561334f5761334e6135a2565b5b828201905092915050565b60006133658261343f565b91506133708361343f565b9250817fffffffffffffffffffffffffffffffffffffffffffffffffffffffffffffffff04831182151516156133a9576133a86135a2565b5b828202905092915050565b600060ff82169050919050565b6000819050919050565b60006133d68261341f565b9050919050565b60008115159050919050565b6000819050919050565b60007fffffffff0000000000000000000000000000000000000000000000000000000082169050919050565b600073ffffffffffffffffffffffffffffffffffffffff82169050919050565b6000819050919050565b600060ff82169050919050565b82818337600083830152505050565b60005b83811015613483578082015181840152602081019050613468565b83811115613492576000848401525b50505050565b60006134a38261343f565b915060008214156134b7576134b66135a2565b5b600182039050919050565b600060028204905060018216806134da57607f821691505b602082108114156134ee576134ed6135d1565b5b50919050565b600061350761350283613640565b6133b4565b9050919050565b600061352161351c83613640565b6133c1565b9050919050565b6135318261362f565b810181811067ffffffffffffffff821117156135505761354f613600565b5b80604052505050565b60006135648261343f565b91507fffffffffffffffffffffffffffffffffffffffffffffffffffffffffffffffff821415613597576135966135a2565b5b600182019050919050565b7f4e487b7100000000000000000000000000000000000000000000000000000000600052601160045260246000fd5b7f4e487b7100000000000000000000000000000000000000000000000000000000600052602260045260246000fd5b7f4e487b7100000000000000000000000000000000000000000000000000000000600052604160045260246000fd5b6000601f19601f8301169050919050565b60008160001c9050919050565b7f537472696e67733a20686578206c656e67746820696e73756666696369656e74600082015250565b7f45524332303a207472616e7366657220746f20746865207a65726f206164647260008201527f6573730000000000000000000000000000000000000000000000000000000000602082015250565b7f45524332303a20617070726f766520746f20746865207a65726f20616464726560008201527f7373000000000000000000000000000000000000000000000000000000000000602082015250565b7f45524332303a20696e73756666696369656e7420616c6c6f77616e6365000000600082015250565b7f45524332303a207472616e7366657220616d6f756e742065786365656473206260008201527f616c616e63650000000000000000000000000000000000000000000000000000602082015250565b7f546869732070726f6475637420616c726561647920636f6e6669726d65642100600082015250565b7f45524332303a207472616e736665722066726f6d20746865207a65726f20616460008201527f6472657373000000000000000000000000000000000000000000000000000000602082015250565b7f45524332303a20617070726f76652066726f6d20746865207a65726f2061646460008201527f7265737300000000000000000000000000000000000000000000000000000000602082015250565b7f416363657373436f6e74726f6c3a206163636f756e7420000000000000000000600082015250565b7f45524332303a2064656372656173656420616c6c6f77616e63652062656c6f7760008201527f207a65726f000000000000000000000000000000000000000000000000000000602082015250565b7f206973206d697373696e6720726f6c6520000000000000000000000000000000600082015250565b7f416363657373436f6e74726f6c3a2063616e206f6e6c792072656e6f756e636560008201527f20726f6c657320666f722073656c660000000000000000000000000000000000602082015250565b7f45524332303a206d696e7420746f20746865207a65726f206164647265737300600082015250565b613975816133cb565b811461398057600080fd5b50565b61398c816133dd565b811461399757600080fd5b50565b6139a3816133e9565b81146139ae57600080fd5b50565b6139ba816133f3565b81146139c557600080fd5b50565b6139d18161343f565b81146139dc57600080fd5b5056fea26469706673582212206f61ac5bf3a31138d0aab768bc0eac22071521314c5e5eaddaafc91990226c4664736f6c63430008040033",
  "immutableReferences": {},
  "source": "// SPDX-License-Identifier: MIT\npragma solidity ^0.8.4;\n\nimport \"@openzeppelin/contracts/token/ERC20/ERC20.sol\";\nimport \"@openzeppelin/contracts/access/AccessControl.sol\";\n\ncontract TomatoChain is ERC20, AccessControl {\n    bytes32 private constant COMPANY_ROLE = keccak256(\"COMPANY_ROLE\");\n\n    struct Product {\n        uint productID;\n        string productName;\n        uint productPrice;\n        string productDescription;\n        string Provider;\n        string Retailer;\n        bool isConfirmByRetailer;\n        uint dateOfManufacture;\n        uint expirationDate;\n        uint quantity;\n    }\n\n    mapping(uint => Product) private productByProductId;\n    mapping(string => uint) public totalRetailer;\n    mapping(string => uint) public totalProvider;\n    mapping(string => mapping(uint => Product)) public totalProductRetailer;\n    mapping(string => mapping(uint => Product)) public totalProductProvider;\n\n    constructor() ERC20(\"TomatoChain\", \"TOMATO\") {\n        _grantRole(DEFAULT_ADMIN_ROLE, msg.sender);\n        _grantRole(COMPANY_ROLE, msg.sender);\n    }\n\n\n    // Modifiers zone\n    modifier checkConfirmByRetailer (uint productID){\n        require(productByProductId[productID].isConfirmByRetailer == false, \"This product already confirmed!\");\n        _;\n    }\n\n\n    // Events zone\n    event productEvent(Product product);\n\n    // event AcceptByRetailerEvent(Product product);\n\n\n    // Function zone\n    // function getProductOfRetailer (string memory retailer, uint index) external view returns (Product memory) {\n    //     return totalProductRetailer[retailer][index];\n    // }\n\n    // function getProductOfProvider (string memory provider, uint index) external view returns (\n    //     uint productID,\n    //     string memory productName,\n    //     uint productPrice,\n    //     string memory productDescription,\n    //     string memory Provider,\n    //     string memory Retailer,\n    //     bool isConfirmByRetailer,\n    //     uint dateOfManufacture,\n    //     uint expirationDate,\n    //     uint quantity\n    // ) {\n    //     Product memory product = totalProductProvider[provider][index];\n    //     return (\n    //         product.productID,\n    //         product.productName,\n    //         product.productPrice,\n    //         product.productDescription,\n    //         product.Provider,\n    //         product.Retailer,\n    //         product.isConfirmByRetailer,\n    //         product.dateOfManufacture,\n    //         product.expirationDate,\n    //         product.quantity\n    //     );\n    // }\n\n    function acceptByRetailer (uint productID, string memory retailer, string memory provider, uint index) external onlyRole(COMPANY_ROLE) checkConfirmByRetailer(productID) {\n        productByProductId[productID].isConfirmByRetailer = true;\n        totalProductRetailer[retailer][index].isConfirmByRetailer = true;\n        totalProductProvider[provider][index].isConfirmByRetailer = true;\n        updateStatusOnProvider(productID, provider);\n        emit productEvent(productByProductId[productID]);\n    }\n    function updateStatusOnProvider (uint productID, string memory provider) private {\n        uint _totalProvider = totalProvider[provider];\n        for (uint i = 0; i <= _totalProvider; i++) {\n            if (totalProductProvider[provider][i].productID == productID) {\n                totalProductProvider[provider][i].isConfirmByRetailer = true;\n            }\n        }\n    }\n\n    function createProduct(\n        uint productID,\n        string memory productName,\n        uint productPrice,\n        string memory productDescription,\n        string memory Provider,\n        bool isConfirmByRetailer,\n        string memory Retailer,\n        uint dateOfManufacture,\n        uint expirationDate,\n        uint quantity\n    ) external onlyRole(COMPANY_ROLE) {\n        Product memory product = Product(\n            productID,\n            productName,\n            productPrice,\n            productDescription,\n            Provider,\n            Retailer,\n            isConfirmByRetailer,\n            dateOfManufacture,\n            expirationDate,\n            quantity\n        );\n        productByProductId[productID] = product;\n        totalRetailer[Retailer] += 1;\n        totalProvider[Provider] += 1;\n        totalProductRetailer[Retailer][totalRetailer[Retailer]] = product;\n        totalProductProvider[Provider][totalProvider[Provider]] = product;\n        emit productEvent(product);\n    }\n\n    function mint(address to, uint256 amount) external onlyRole(DEFAULT_ADMIN_ROLE) {\n        _mint(to, amount);\n    }\n\n    function setCompany(address company) external onlyRole(DEFAULT_ADMIN_ROLE) {\n        _grantRole(COMPANY_ROLE, company);\n    }\n}",
  "sourcePath": "/Users/leducthang/Desktop/blockchain/TomatoChain/contracts/Product.sol",
  "compiler": {
    "name": "solc",
    "version": "0.8.4+commit.c7e474f2.Emscripten.clang"
  },
  "schemaVersion": "3.4.6",
  "updatedAt": "2022-04-24T11:50:09.727Z",
  "networkType": "ethereum",
  "devdoc": {
    "kind": "dev",
    "methods": {
      "allowance(address,address)": {
        "details": "See {IERC20-allowance}."
      },
      "approve(address,uint256)": {
        "details": "See {IERC20-approve}. NOTE: If `amount` is the maximum `uint256`, the allowance is not updated on `transferFrom`. This is semantically equivalent to an infinite approval. Requirements: - `spender` cannot be the zero address."
      },
      "balanceOf(address)": {
        "details": "See {IERC20-balanceOf}."
      },
      "decimals()": {
        "details": "Returns the number of decimals used to get its user representation. For example, if `decimals` equals `2`, a balance of `505` tokens should be displayed to a user as `5.05` (`505 / 10 ** 2`). Tokens usually opt for a value of 18, imitating the relationship between Ether and Wei. This is the value {ERC20} uses, unless this function is overridden; NOTE: This information is only used for _display_ purposes: it in no way affects any of the arithmetic of the contract, including {IERC20-balanceOf} and {IERC20-transfer}."
      },
      "decreaseAllowance(address,uint256)": {
        "details": "Atomically decreases the allowance granted to `spender` by the caller. This is an alternative to {approve} that can be used as a mitigation for problems described in {IERC20-approve}. Emits an {Approval} event indicating the updated allowance. Requirements: - `spender` cannot be the zero address. - `spender` must have allowance for the caller of at least `subtractedValue`."
      },
      "getRoleAdmin(bytes32)": {
        "details": "Returns the admin role that controls `role`. See {grantRole} and {revokeRole}. To change a role's admin, use {_setRoleAdmin}."
      },
      "grantRole(bytes32,address)": {
        "details": "Grants `role` to `account`. If `account` had not been already granted `role`, emits a {RoleGranted} event. Requirements: - the caller must have ``role``'s admin role."
      },
      "hasRole(bytes32,address)": {
        "details": "Returns `true` if `account` has been granted `role`."
      },
      "increaseAllowance(address,uint256)": {
        "details": "Atomically increases the allowance granted to `spender` by the caller. This is an alternative to {approve} that can be used as a mitigation for problems described in {IERC20-approve}. Emits an {Approval} event indicating the updated allowance. Requirements: - `spender` cannot be the zero address."
      },
      "name()": {
        "details": "Returns the name of the token."
      },
      "renounceRole(bytes32,address)": {
        "details": "Revokes `role` from the calling account. Roles are often managed via {grantRole} and {revokeRole}: this function's purpose is to provide a mechanism for accounts to lose their privileges if they are compromised (such as when a trusted device is misplaced). If the calling account had been revoked `role`, emits a {RoleRevoked} event. Requirements: - the caller must be `account`."
      },
      "revokeRole(bytes32,address)": {
        "details": "Revokes `role` from `account`. If `account` had been granted `role`, emits a {RoleRevoked} event. Requirements: - the caller must have ``role``'s admin role."
      },
      "supportsInterface(bytes4)": {
        "details": "See {IERC165-supportsInterface}."
      },
      "symbol()": {
        "details": "Returns the symbol of the token, usually a shorter version of the name."
      },
      "totalSupply()": {
        "details": "See {IERC20-totalSupply}."
      },
      "transfer(address,uint256)": {
        "details": "See {IERC20-transfer}. Requirements: - `to` cannot be the zero address. - the caller must have a balance of at least `amount`."
      },
      "transferFrom(address,address,uint256)": {
        "details": "See {IERC20-transferFrom}. Emits an {Approval} event indicating the updated allowance. This is not required by the EIP. See the note at the beginning of {ERC20}. NOTE: Does not update the allowance if the current allowance is the maximum `uint256`. Requirements: - `from` and `to` cannot be the zero address. - `from` must have a balance of at least `amount`. - the caller must have allowance for ``from``'s tokens of at least `amount`."
      }
    },
    "version": 1
  },
  "userdoc": {
    "kind": "user",
    "methods": {},
    "version": 1
  }
}